S01600004156525F474C4344616E6450574D2E7372656385
S113000029C000003AC0000038C0000036C000001B
S113001034C0000032C0000030C000002EC0000018
S11300202CC000002AC0000028C0000026C0000028
S113003024C0000022C0000020C000001EC0000038
S11300401CC000001AC0000018C0000016C0000048
S113005014C0000011241FBECFE5D8E0DEBFCDBF21
S113006013E0A0E6B0E0EEE7F7E002C005900D92E1
S1130070A437B107D9F708D180C3C2CF60E08CE0C0
S113008055D260E08DE052C2089560E08CE04ED21B
S113009061E08DE04BC2089561E08CE047D260E0FE
S11300A08DE044C20895482F68E086E690E0E7D2E8
S11300B060E089E03BD260E08AE038D261E08BE026
S11300C035D28DE08A95F1F7000060E08BE02ED206
S11300D08DE08A95F1F700000895482F68E086E6E0
S11300E090E0CDD261E089E021D260E08AE01ED2C6
S11300F061E08BE01BD28DE08A95F1F7000060E0AF
S11301008BE014D28DE08A95F1F700000895CF9327
S1130110DF93CDB7DEB72E970FB6F894DEBF0FBED0
S1130120CDBF88E0EEE6F0E0DE01119601900D927D
S11301308A95E1F7AE014F5F5F4F68E086E690E095
S1130140D8D286E0E6E7F0E0DE01199601900D9240
S11301508A95E1F7AE01475F5F4F66E080E690E085
S1130160C8D28CDF61E08EE0E1D18FE39CE9019796
S1130170F1F700C000008EE396DF80E494DF88EBA3
S113018092DF80EC90DF8FE38EDF2E960FB6F8942B
S1130190DEBF0FBECDBFDF91CF910895DF92EF9206
S11301A0FF920F931F93CF93DF93C42FD0E09E0150
S11301B02B5F3F4FC217D30714F5082E000C990B81
S11301C08C01000F111F000F111F080F191F045875
S11301D01F4F79010F2EF8EBDF2EF02DD60EC03411
S11301E0D10529F459DF80E45EDF8D2D5CDFF80151
S11301F081918F0172DF2196CE15DF0581F7DF91A2
S1130200CF911F910F91FF90EF90DF900895FF928F
S11302100F931F93CF93DF93EC01F62E36DF80E428
S113022042DF88EB8F0D3FDF8881882369F08E01E0
S11302300F5F1F4FC0E04C2F6F2DB0DFF80181918D
S11302408F01CB5F8111F7CFDF91CF911F910F9178
S1130250FF9008951F93CF93DF9310DF18EB80E492
S113026022DF812F20DFC0E4D0E080E036DF219759
S1130270E1F71F5F103C99F780E415DF88EB13DF8B
S1130280DF91CF911F910895CF93DF93CDB7DEB760
S1130290A6970FB6F894DEBF0FBECDBF38DFDADF06
S11302A061E081E093E0B3DF82E1EDE0F3E0DE01C1
S11302B0119601900D928A95E1F784E1EFE1F3E064
S11302C0DE01539601900D928A95E1F7812C912CD1
S11302D00F2EF4E63F2EF02D0F2E612CFAE07F2E28
S11302E0F02D0F2EFAE04F2E512CF02D212CCDDEC7
S11302F080E4D9DE8AEBD7DE389C9001399C300D3E
S11303001124C901B30112D2605D6E87C90199231A
S113031014F481509F4F292F220F220B892F922FE3
S1130320B20104D2805D8F8762E0CE0101966FDF57
S113033063E0CE0143966BDFA8DE80E4B4DE8DEB90
S1130340B2DEC40163E070E0F1D15B0100E010E0D3
S1130350C22CD12C0F2EF5E5EF2EF12CF02D08C078
S11303600034110529F498DE80E49DDE8DEB9BDEDC
S1130370E016F10651F1C5018C0D9D1D8017910702
S113038019F48FEFAADE08C0801791071CF480E8E7
S1130390A4DE02C081E0A1DE0F5F1F4F003811050B
S11303A0F9F624E1820E911C8FEF8816910419F05E
S11303B014F0812C912C9FEF20E782E09150204093
S11303C08040E1F700C0000092CF8FEF86DE670126
S11303D0C8018B5A9F4F7C01DFCF803208F0A5C043
S11303E090E00197FC01EE0FFF1FED5CFC4F2081B4
S11303F0213069F138F0223009F44EC0233009F479
S113040070C00895613089F42AB3880F991FFC01E4
S1130410ED5CFC4F81E090E0018002C0880F991FE1
S11304200A94E2F7822B8ABB08952AB3880F991F96
S1130430FC01ED5CFC4F81E090E0018002C0880F7C
S1130440991F0A94E2F7809582238ABB089561304C
S113045089F427B3880F991FFC01ED5CFC4F81E000
S113046090E0018002C0880F991F0A94E2F7822B62
S113047087BB089527B3880F991FFC01ED5CFC4FDF
S113048081E090E0018002C0880F991F0A94E2F78E
S11304908095822387BB0895613089F424B3880F43
S11304A0991FFC01ED5CFC4F81E090E0018002C0EB
S11304B0880F991F0A94E2F7822B84BB089524B312
S11304C0880F991FFC01ED5CFC4F81E090E00180F6
S11304D002C0880F991F0A94E2F78095822384BB97
S11304E00895613089F421B3880F991FFC01ED5CF4
S11304F0FC4F81E090E0018002C0880F991F0A94AC
S1130500E2F7822B81BB089521B3880F991FFC0168
S1130510ED5CFC4F81E090E0018002C0880F991FE0
S11305200A94E2F78095822381BB0895803208F013
S1130530A5C090E00197FC01EE0FFF1FED5CFC4F9E
S11305402081213069F138F0223009F44EC0233083
S113055009F470C00895613089F42BB3880F991F92
S1130560FC01ED5CFC4F81E090E0018002C0880F4B
S1130570991F0A94E2F7822B8BBB08952BB3880F43
S1130580991FFC01ED5CFC4F81E090E0018002C00A
S1130590880F991F0A94E2F7809582238BBB0895F4
S11305A0613089F428B3880F991FFC01ED5CFC4F7E
S11305B081E090E0018002C0880F991F0A94E2F75D
S11305C0822B88BB089528B3880F991FFC01ED5C2A
S11305D0FC4F81E090E0018002C0880F991F0A94CB
S11305E0E2F78095822388BB0895613089F425B3AE
S11305F0880F991FFC01ED5CFC4F81E090E00180C5
S113060002C0880F991F0A94E2F7822B85BB0895D4
S113061025B3880F991FFC01ED5CFC4F81E090E04D
S1130620018002C0880F991F0A94E2F78095822303
S113063085BB0895613089F422B3880F991FFC01AA
S1130640ED5CFC4F81E090E0018002C0880F991FAF
S11306500A94E2F7822B82BB089522B3880F991F74
S1130660FC01ED5CFC4F81E090E0018002C0880F4A
S1130670991F0A94E2F78095822382BB0895AF9272
S1130680BF92CF92DF92EF92FF920F931F93CF937B
S1130690DF93E62EF12C1E141F0404F5C82FD92F66
S11306A0A12CB12CCC24C394D12C042F10E0B6017E
S11306B00A2C02C0660F771F0A94E2F760237123A5
S11306C00A2C02C0769567950A94E2F789912EDF89
S11306D08FEFA81AB80AAE14BF0449F7DF91CF917F
S11306E01F910F91FF90EF90DF90CF90BF90AF904C
S11306F00895EF92FF920F931F93CF93DF93662396
S113070071F07A01EA01082F192FE60EF11C6991A4
S1130710F80181918F0161DECE15DF05C1F7DF910C
S1130720CF911F910F91FF90EF90089597FB072EA3
S113073016F4009406D077FD08D00BD007FC05D042
S11307403EF4909581959F4F0895709561957F4FE4
S11307500895AA1BBB1B51E107C0AA1FBB1FA61704
S1130760B70710F0A61BB70B881F991F5A95A9F756
S111077080959095BC01CD010895F894FFCFBB
S113077E090A0B0C0D0E01020304050607080101FC
S113078E010101010101010101010101000000004B
S113079E001E3531351E1E3537351E0E1F3E1F0EFB
S11307AE081C7F1C08184A7F4A181C4E7F4E1C00DA
S11307BE0000000000000000000000000000000027
S11307CE000000384444473B0E51F1510E00000026
S11307DE0000607E02333F2A1C361C2A3E1C1C0875
S11307EE0808081C1C3E00227F2200002E002E004A
S11307FE067F017F00004A552900001818181800BA
S113080E4A5F4A0000027F020000207F2000000899
S113081E081C0800081C0808003C202020081C089E
S113082E1C0820383E3820020E3E0E020000000046
S113083E0000002F00000003000300341C361C16B9
S113084E00267F3200320D1E2C1318262D1228007E
S113085E00030000001C2241414141221C00000AF9
S113086E050A00001038100000806000000008081F
S113087E080000002000000060180601001E21215F
S113088E1E00223F200000312926000025251A00D3
S113089E000C0A3F080027251900001E2525180004
S11308AE01390503001A25251A000629291E000000
S11308BE24000000806400000008081422001414B0
S11308CE1414002214080800012905023C4259554B
S11308DE5E301C121C30003E2A3600001C222222DE
S11308EE003E22221C003E2A2A00003E0A0A000074
S11308FE1C222A3A003E08083E00223E2200002214
S113090E221E00003E081422003E2020203E041821
S113091E043E003E04083E1C2222221C003E0A0A0B
S113092E041C2222629C003E0A142000242A120077
S113093E02023E0202001E20201E000E30300E0E59
S113094E300C300E22140814220204380402003231
S113095E2A2A2600007F4100010618600000417F0C
S113096E00001806010618404040404000010200F5
S113097E000034343820003F2424180018242400A6
S113098E1824243F0000182C280000043E050500FE
S113099E5854543C003F08043800043D0000004401
S11309AE443D00003F08142000013F00003C083C79
S11309BE083C003C0804380018242418007C242425
S11309CE181824247C00003C08040000282C140071
S11309DE00041E2404001C20103C000C30300C0CAF
S11309EE301C300C0024181824404C70300C003489
S11309FE2C2C00000836410000007F000000413618
S1130A0E08001008081008003C223C00001CA262DA
S1130A1E2250574D205369676E616C2000447574E3
S1130A2E79204379636C65203D20303020250046C3
S1130A3E72657175656E6379203D20333230204BBB
S1130A4E485A0000000001000200030004000500E3
S1130A5E0600070100010101020103010401050161
S1130A6E0601070200020102020203020402050249
S1130A7E0602070300030103020303030403050331
S1070A8E0603070050
S9030000FC
