S01600004156525F474C4344616E6450574D2E7372656385
S113000029C000003AC0000038C0000036C000001B
S113001034C0000032C0000030C000002EC0000018
S11300202CC000002AC0000028C0000026C0000028
S113003024C0000022C0000020C000001EC0000038
S11300401CC000001AC0000018C0000016C0000048
S113005014C0000011241FBECFE5D8E0DEBFCDBF21
S113006013E0A0E6B0E0E8EFF9E002C005900D92DD
S1130070A437B107D9F71ED1BDC4C2CF60E08CE06C
S113008075D260E08DE072C2089560E08CE06ED2BB
S113009061E08DE06BC2089561E08CE067D260E0BE
S11300A08DE064C20895482F68E086E690E007D3A7
S11300B060E089E05BD260E08AE058D261E08BE0E6
S11300C055D28DE08A95F1F7000060E08BE04ED2C6
S11300D08DE08A95F1F700000895482F68E086E6E0
S11300E090E0EDD261E089E041D260E08AE03ED266
S11300F061E08BE03BD28DE08A95F1F7000060E08F
S11301008BE034D28DE08A95F1F700000895CF9307
S1130110DF93CDB7DEB72E970FB6F894DEBF0FBED0
S1130120CDBF88E0EEE6F0E0DE01119601900D927D
S11301308A95E1F7AE014F5F5F4F68E086E690E095
S1130140F8D286E0E6E7F0E0DE01199601900D9220
S11301508A95E1F7AE01475F5F4F66E080E690E085
S1130160E8D28CDF61E08EE001D28FE39CE9019755
S1130170F1F700C000008EE396DF80E494DF88EBA3
S113018092DF80EC90DF8FE38EDF2E960FB6F8942B
S1130190DEBF0FBECDBFDF91CF910895DF92EF9206
S11301A0FF920F931F93CF93DF93C42FD0E09E0150
S11301B02B5F3F4FC217D30714F5082E000C990B81
S11301C08C01000F111F000F111F080F191F045875
S11301D01F4F79010F2EF8EBDF2EF02DD60EC03411
S11301E0D10529F459DF80E45EDF8D2D5CDFF80151
S11301F081918F0172DF2196CE15DF0581F7DF91A2
S1130200CF911F910F91FF90EF90DF900895FF928F
S11302100F931F93CF93DF93EC01F62E36DF80E428
S113022042DF88EB8F0D3FDF8881882369F08E01E0
S11302300F5F1F4FC0E04C2F6F2DB0DFF80181918D
S11302408F01CB5F8111F7CFDF91CF911F910F9178
S1130250FF9008951F93CF93DF9310DF18EB80E492
S113026022DF812F20DFC0E4D0E080E036DF219759
S1130270E1F71F5F103C99F780E415DF88EB13DF8B
S1130280DF91CF911F91089560E081E0C6D060E0D6
S113029082E0C3D080E487B987E886B9089597B12E
S11302A0907F8F70892B87B9369A3699FECF84B1A7
S11302B095B10895CF93DF93CDB7DEB7A7970FB667
S11302C0F894DEBF0FBECDBF22DFDEDFC3DF61E007
S11302D081E093E09CDF83E1EDE0F3E0DE01119641
S11302E001900D928A95E1F784E1E0E2F3E0DE010A
S11302F0549601900D928A95E1F700E010E00F2EDC
S1130300F4E63F2EF02D0F2EF0E35F2EF02D0F2E8E
S1130310FAE08F2E912CF02D212C612C0F2EF9E177
S11303204F2EF02D712CB1DE80E4BDDE8AEBBBDEF6
S1130330309EC001319E900D1124AC01992314F418
S113034041505F4F252F352F330F330B24363105A2
S113035029F481E38E875F86588A0BC05E8660E04D
S11303607AE021D3605D6F87C901B4011CD3805D3D
S1130370888B62E0CE0101964ADF63E0CE014496A9
S113038046DF83DE80E48FDE8DEB8DDEC801B401B1
S11303900AD35B0100E010E0C22CD62CE42CF72C2D
S11303A008C00034110529F477DE80E47CDE8DEB8F
S11303B07ADEE016F10651F1C5018C0D9D1D801702
S11303C0910719F48FEF89DE08C0801791071CF498
S11303D080E883DE02C081E080DE0F5F1F4F0038BB
S11303E01105F9F680E05BDFBC0180E090E0EAD122
S11303F028E030E240E85EE34BD2B8D18B018FECC9
S113040097E00197F1F700C000008DCF8FEF65DE14
S11304106701C80149967C01E0CF803208F0A5C08D
S113042090E00197FC01EE0FFF1FEC5CFC4F208174
S1130430213069F138F0223009F44EC0233009F438
S113044070C00895613089F42AB3880F991FFC01A4
S1130450EC5CFC4F81E090E0018002C0880F991FA2
S11304600A94E2F7822B8ABB08952AB3880F991F56
S1130470FC01EC5CFC4F81E090E0018002C0880F3D
S1130480991F0A94E2F7809582238ABB089561300C
S113049089F427B3880F991FFC01EC5CFC4F81E0C1
S11304A090E0018002C0880F991F0A94E2F7822B22
S11304B087BB089527B3880F991FFC01EC5CFC4FA0
S11304C081E090E0018002C0880F991F0A94E2F74E
S11304D08095822387BB0895613089F424B3880F03
S11304E0991FFC01EC5CFC4F81E090E0018002C0AC
S11304F0880F991F0A94E2F7822B84BB089524B3D2
S1130500880F991FFC01EC5CFC4F81E090E00180B6
S113051002C0880F991F0A94E2F78095822384BB56
S11305200895613089F421B3880F991FFC01EC5CB4
S1130530FC4F81E090E0018002C0880F991F0A946B
S1130540E2F7822B81BB089521B3880F991FFC0128
S1130550EC5CFC4F81E090E0018002C0880F991FA1
S11305600A94E2F78095822381BB0895803208F0D3
S1130570A5C090E00197FC01EE0FFF1FEC5CFC4F5F
S11305802081213069F138F0223009F44EC0233043
S113059009F470C00895613089F42BB3880F991F52
S11305A0FC01EC5CFC4F81E090E0018002C0880F0C
S11305B0991F0A94E2F7822B8BBB08952BB3880F03
S11305C0991FFC01EC5CFC4F81E090E0018002C0CB
S11305D0880F991F0A94E2F7809582238BBB0895B4
S11305E0613089F428B3880F991FFC01EC5CFC4F3F
S11305F081E090E0018002C0880F991F0A94E2F71D
S1130600822B88BB089528B3880F991FFC01EC5CEA
S1130610FC4F81E090E0018002C0880F991F0A948A
S1130620E2F78095822388BB0895613089F425B36D
S1130630880F991FFC01EC5CFC4F81E090E0018085
S113064002C0880F991F0A94E2F7822B85BB089594
S113065025B3880F991FFC01EC5CFC4F81E090E00E
S1130660018002C0880F991F0A94E2F780958223C3
S113067085BB0895613089F422B3880F991FFC016A
S1130680EC5CFC4F81E090E0018002C0880F991F70
S11306900A94E2F7822B82BB089522B3880F991F34
S11306A0FC01EC5CFC4F81E090E0018002C0880F0B
S11306B0991F0A94E2F78095822382BB0895AF9232
S11306C0BF92CF92DF92EF92FF920F931F93CF933B
S11306D0DF93E62EF12C1E141F0404F5C82FD92F26
S11306E0A12CB12CCC24C394D12C042F10E0B6013E
S11306F00A2C02C0660F771F0A94E2F76023712365
S11307000A2C02C0769567950A94E2F789912EDF48
S11307108FEFA81AB80AAE14BF0449F7DF91CF913E
S11307201F910F91FF90EF90DF90CF90BF90AF900B
S11307300895EF92FF920F931F93CF93DF93662355
S113074071F07A01EA01082F192FE60EF11C699164
S1130750F80181918F0161DECE15DF05C1F7DF91CC
S1130760CF911F910F91FF90EF90089570D088F072
S11307709F5790F0B92F9927B751A0F0D1F0660F89
S1130780771F881F991F1AF0BA95C9F712C0B130A4
S113079081F077D0B1E0089574C0672F782F88274F
S11307A0B85F39F0B93FCCF3869577956795B395E3
S11307B0D9F73EF490958095709561957F4F8F4F52
S11307C09F4F0895E89409C097FB3EF49095809557
S11307D0709561957F4F8F4F9F4F9923A9F0F92F03
S11307E096E9BB279395F695879577956795B79581
S11307F0F111F8CFFAF4BB0F11F460FF1BC06F5F67
S11308007F4F8F4F9F4F16C0882311F096E911C078
S1130810772321F09EE8872F762F05C0662371F099
S113082096E8862F70E060E02AF09A95660F771FAD
S1130830881FDAF7880F9695879597F9089557FDDD
S11308409058440F551F59F05F3F71F04795880F3A
S113085097FB991F61F09F3F79F0879508951216D1
S113086013061406551FF2CF4695F1DF08C016167D
S113087017061806991FF1CF86957105610508942E
S11308800895E894BB2766277727CB0197F9089545
S11308900BD078C069D028F06ED018F0952309F0F9
S11308A05AC05FC01124EECFCADFA0F3959FD1F3E5
S11308B0950F50E0551F629FF001729FBB27F00D0A
S11308C0B11D639FAA27F00DB11DAA1F649F66275F
S11308D0B00DA11D661F829F2227B00DA11D621FAE
S11308E0739FB00DA11D621F839FA00D611D221F68
S11308F0749F3327A00D611D231F849F600D211D4C
S1130900822F762F6A2F11249F5750408AF0E1F0EE
S113091088234AF0EE0FFF1FBB1F661F771F881F37
S113092091505040A9F79E3F510570F014C0AACFD2
S11309305F3FECF3983EDCF3869577956795B79522
S1130940F795E7959F5FC1F7FE2B880F911D96954C
S1130950879597F9089597F99F6780E870E060E0BC
S113096008959FEF80EC089500240A941616170644
S113097018060906089500240A941216130614068C
S113098005060895092E0394000C11F4882352F0EF
S1130990BB0F40F4BF2B11F460FF04C06F5F7F4FA7
S11309A08F4F9F4F089597FB072E16F4009406D09F
S11309B077FD08D00BD007FC05D03EF490958195C7
S11309C09F4F0895709561957F4F0895AA1BBB1B97
S11309D051E107C0AA1FBB1FA617B70710F0A61B3B
S11309E0B70B881F991F5A95A9F780959095BC015C
S10B09F0CD010895F894FFCF36
S11309F8090A0B0C0D0E18191A1B1C1D1E1F0101C8
S1130A0801010101010101010101010100000000CE
S1130A18001E3531351E1E3537351E0E1F3E1F0E7E
S1130A28081C7F1C08184A7F4A181C4E7F4E1C005D
S1130A3800000000000000000000000000000000AA
S1130A48000000384444473B0E51F1510E000000A9
S1130A580000607E02333F2A1C361C2A3E1C1C08F8
S1130A680808081C1C3E00227F2200002E002E00CD
S1130A78067F017F00004A5529000018181818003D
S1130A884A5F4A0000027F020000207F200000081D
S1130A98081C0800081C0808003C202020081C0822
S1130AA81C0820383E3820020E3E0E0200000000CA
S1130AB80000002F00000003000300341C361C163D
S1130AC800267F3200320D1E2C1318262D12280002
S1130AD800030000001C2241414141221C00000A7D
S1130AE8050A0000103810000080600000000808A3
S1130AF8080000002000000060180601001E2121E3
S1130B081E00223F200000312926000025251A0056
S1130B18000C0A3F080027251900001E2525180087
S1130B2801390503001A25251A000629291E000083
S1130B382400000080640000000808142200141433
S1130B481414002214080800012905023C425955CE
S1130B585E301C121C30003E2A3600001C22222261
S1130B68003E22221C003E2A2A00003E0A0A0000F7
S1130B781C222A3A003E08083E00223E2200002297
S1130B88221E00003E081422003E2020203E0418A5
S1130B98043E003E04083E1C2222221C003E0A0A8F
S1130BA8041C2222629C003E0A142000242A1200FB
S1130BB802023E0202001E20201E000E30300E0EDD
S1130BC8300C300E221408142202043804020032B5
S1130BD82A2A2600007F4100010618600000417F90
S1130BE80000180601061840404040400001020079
S1130BF8000034343820003F24241800182424002A
S1130C081824243F0000182C280000043E05050081
S1130C185854543C003F08043800043D0000004484
S1130C28443D00003F08142000013F00003C083CFC
S1130C38083C003C0804380018242418007C2424A8
S1130C48181824247C00003C08040000282C1400F4
S1130C5800041E2404001C20103C000C30300C0C32
S1130C68301C300C0024181824404C70300C00340C
S1130C782C2C00000836410000007F00000041369B
S1130C8808001008081008003C223C00001CA2625E
S1130C982250574D205369676E616C200044757467
S1130CA879204379636C65203D203030302025005D
S1130CB84672657175656E6379203D203332302044
S1130CC84B485A000000000100020003000400051C
S1130CD800060007010001010102010301040105E6
S1130CE801060107020002010202020302040205CE
S1130CF802060207030003010302030303040305B6
S1070D0803060307D0
S9030000FC
