S01700004763634170706C69636174696F6E312E737265635B
S11300000C942A000C943F000C943F000C943F0085
S11300100C943F000C943F000C943F000C943F0060
S11300200C943F000C943F000C943F000C943F0050
S11300300C943F000C943F000C943F000C943F0040
S11300400C943F000C943F000C943F000C943F0030
S11300500C943F0011241FBECFE5D8E0DEBFCDBF16
S113006013E0A0E6B0E0E4E1F8E002C005900D92F0
S1130070A437B107D9F70E9430030C9408040C94F8
S11300800000803208F0A5C090E00197FC01EE0F5B
S1130090FF1FE05AFF4F2081213069F138F02230F0
S11300A009F44EC0233009F470C00895662389F022
S11300B02AB3880F991FFC01E05AFF4F81E090E0BA
S11300C0018002C0880F991F0A94E2F7822B8ABB31
S11300D008952AB3880F991FFC01E05AFF4F81E06D
S11300E090E0018002C0880F991F0A94E2F780957E
S11300F082238ABB0895662389F027B3880F991F4A
S1130100FC01E05AFF4F81E090E0018002C0880FBB
S1130110991F0A94E2F7822B87BB089527B3880FAF
S1130120991FFC01E05AFF4F81E090E0018002C07A
S1130130880F991F0A94E2F78095822387BB08955C
S1130140662389F024B3880F991FFC01E05AFF4FFE
S113015081E090E0018002C0880F991F0A94E2F7C1
S1130160822B84BB089524B3880F991FFC01E05AA5
S1130170FF4F81E090E0018002C0880F991F0A942C
S1130180E2F78095822384BB0895662389F021B326
S1130190880F991FFC01E05AFF4F81E090E0018035
S11301A002C0880F991F0A94E2F7822B81BB08953D
S11301B021B3880F991FFC01E05AFF4F81E090E0C2
S11301C0018002C0880F991F0A94E2F78095822368
S11301D081BB0895803208F0A5C090E00197FC012E
S11301E0EE0FFF1FE05AFF4F2081213069F138F0F4
S11301F0223009F44EC0233009F470C008956623F8
S113020089F02BB3880F991FFC01E05AFF4F81E05E
S113021090E0018002C0880F991F0A94E2F7822BB4
S11302208BBB08952BB3880F991FFC01E05AFF4F35
S113023081E090E0018002C0880F991F0A94E2F7E0
S1130240809582238BBB0895662389F028B3880F99
S1130250991FFC01E05AFF4F81E090E0018002C049
S1130260880F991F0A94E2F7822B88BB089528B35C
S1130270880F991FFC01E05AFF4F81E090E0018054
S113028002C0880F991F0A94E2F78095822388BBE5
S11302900895662389F025B3880F991FFC01E05A5D
S11302A0FF4F81E090E0018002C0880F991F0A94FB
S11302B0E2F7822B85BB089525B3880F991FFC01B3
S11302C0E05AFF4F81E090E0018002C0880F991F3F
S11302D00A94E2F78095822385BB0895662389F00A
S11302E022B3880F991FFC01E05AFF4F81E090E090
S11302F0018002C0880F991F0A94E2F7822B82BB07
S1130300089522B3880F991FFC01E05AFF4F81E042
S113031090E0018002C0880F991F0A94E2F780954B
S1130320822382BB0895EF92FF920F931F93CF9382
S1130330DF938C01F62EE42EC0E0D0E019C061E01A
S113034070E00C2E02C0660F771F0A94E2F78E2D20
S113035090E0682379230C2E02C0759567950A9462
S1130360E2F7F801EC0FFD1F80810E94EA0021965C
S11303708F2D90E0C817D90714F3DF91CF911F9107
S11303800F91FF90EF900895DF92EF92FF920F93F9
S11303901F93CF93DF937C01D62E8A01C0E0D0E077
S11303A00BC0D801AC0FBD1FF701EC0FFD1F6C9102
S11303B080810E94410021968D2D90E0C817D907B5
S11303C084F3DF91CF911F910F91FF90EF90DF9015
S11303D0089560E08CE00E94EA0061E08DE00E94F4
S11303E0EA00089561E08CE00E94EA0060E08DE09C
S11303F00E94EA000895482F68E086EA90E00E948F
S1130400930160E089E00E94EA0060E08AE00E94D3
S1130410EA0061E08BE00E94EA008DE08A95F1F742
S1130420000060E08BE00E94EA008DE08A95F1F71D
S113043000000895482F68E086EA90E00E94930146
S113044061E089E00E94EA0060E08AE00E94EA003C
S113045061E08BE00E94EA008DE08A95F1F70000EC
S113046060E08BE00E94EA008DE08A95F1F70000DD
S11304700895CF93DF93CDB7DEB72E970FB6F894D8
S1130480DEBF0FBECDBF88E0EEEAF0E0DE011196DC
S113049001900D928A95E1F7AE014F5F5F4F68E0DE
S11304A086EA90E00E94C40186E0E6EBF0E0DE011B
S11304B0199601900D928A95E1F7AE01475F5F4F5F
S11304C066E080EA90E00E94C40160E08CE00E9453
S11304D0EA0060E08DE00E94EA0061E08EE00E94A4
S11304E0EA008FE39CE90197F1F700C000008EE376
S11304F00E94FB0180E40E94FB0188EB0E94FB0147
S113050080EC0E94FB018FE30E94FB012E960FB644
S1130510F894DEBF0FBECDBFDF91CF910895EF9267
S1130520FF920F931F93CF93DF93F82EE62E042FA1
S113053010E0E80127C0C034D10579F461E08CE013
S11305400E94EA0060E08DE00E94EA0080E40E94DC
S1130550FB0188EB8E0D0E94FB019E01201B310BD9
S11305608F2D90E0AC01440F551F440F551F840F8D
S1130570951F84549F4FFC01E20FF31F80810E945A
S11305801A022196C8010596C817D907A4F2DF916B
S1130590CF911F910F91FF90EF900895CF92DF922A
S11305A0FF920F931F93CF93DF936C01F62E60E0BD
S11305B08CE00E94EA0061E08DE00E94EA0080E4A1
S11305C00E94FB0188EB8F0D0E94FB0100E010E00C
S11305D0C0E0D0E007C0402F6F2D0E948F0221960B
S11305E00B5F1F4FF601EC0FFD1F80818111F3CFCC
S11305F0DF91CF911F910F91FF90DF90CF900895DD
S11306000F931F93CF93DF9360E08CE00E94EA0086
S113061060E08DE00E94EA0000E010E013C080E496
S11306200E94FB0188EB800F0E94FB01C0E0D0E038
S113063004C080E00E941A022196C034D105CCF394
S11306400F5F1F4F0830110554F380E40E94FB0133
S113065088EB0E94FB01DF91CF911F910F910895C8
S1130660CF93DF93CDB7DEB7A6970FB6F894DEBF6E
S11306700FBECDBF0E9439020E94000361E081E4F5
S113068093E00E94CE0282E1EDE4F3E0DE011196F4
S113069001900D928A95E1F784E1EFE5F3E0DE0144
S11306A0539601900D928A95E1F7812C912C0E942A
S11306B0E90180E40E94FB018AEB0E94FB0124E62D
S11306C0289DC001299D900D11249C01992314F4A7
S11306D021503F4F232F220F220B60E07AE00E942B
S11306E0E003605D6E870AE010E0832F922FB8016B
S11306F00E94E003805D8F8762E0CE0101960E9434
S1130700CE0263E0CE0143960E94CE020E94E9012C
S113071080E40E94FB018DEB0E94FB01C401B8013F
S11307200E94E0035B0100E010E00F2EF9E1EF2EE0
S1130730F12CF02DC12CD12C2CC00034110541F426
S11307400E94F20180E40E94FB018DEB0E94FB01F8
S1130750E016F10641F48FEF0E941A026701C80106
S113076049967C0114C0C6018A0D9B1D0817190700
S113077021F48FEF0E941A020AC08017910724F413
S113078080E80E941A0203C081E00E941A020F5FEF
S11307901F4F003811058CF29AE0890E911C2FEF3F
S11307A08216910419F014F0812C912C8FEF90E7AC
S11307B022E0815090402040E1F700C0000077CF54
S11307C097FB072E16F4009407D077FD09D00E94FA
S11307D0F40307FC05D03EF4909581959F4F08954E
S11307E0709561957F4F0895AA1BBB1B51E107C00B
S11307F0AA1FBB1FA617B70710F0A61BB70B881FAD
S1130800991F5A95A9F780959095BC01CD0108953B
S1070810F894FFCF86
S113081400000001000200030004000500060007B4
S1130824010001010102010301040105010601079C
S11308340200020102020203020402050206020784
S1130844030003010302030303040305030603076C
S1130854090A0B0C0D0E0102030405060708010125
S11308640101010101010101010101010000000074
S1130874001E3531351E1E3537351E0E1F3E1F0E24
S1130884081C7F1C08184A7F4A181C4E7F4E1C0003
S11308940000000000000000000000000000000050
S11308A4000000384444473B0E51F1510E0000004F
S11308B40000607E02333F2A1C361C2A3E1C1C089E
S11308C40808081C1C3E00227F2200002E002E0073
S11308D4067F017F00004A552900001818181800E3
S11308E44A5F4A0000027F020000207F20000008C3
S11308F4081C0800081C0808003C202020081C08C8
S11309041C0820383E3820020E3E0E02000000006F
S11309140000002F00000003000300341C361C16E2
S113092400267F3200320D1E2C1318262D122800A7
S113093400030000001C2241414141221C00000A22
S1130944050A000010381000008060000000080848
S1130954080000002000000060180601001E212188
S11309641E00223F200000312926000025251A00FC
S1130974000C0A3F080027251900001E252518002D
S113098401390503001A25251A000629291E000029
S113099424000000806400000008081422001414D9
S11309A41414002214080800012905023C42595574
S11309B45E301C121C30003E2A3600001C22222207
S11309C4003E22221C003E2A2A00003E0A0A00009D
S11309D41C222A3A003E08083E00223E220000223D
S11309E4221E00003E081422003E2020203E04184B
S11309F4043E003E04083E1C2222221C003E0A0A35
S1130A04041C2222629C003E0A142000242A1200A0
S1130A1402023E0202001E20201E000E30300E0E82
S1130A24300C300E2214081422020438040200325A
S1130A342A2A2600007F4100010618600000417F35
S1130A44000018060106184040404040000102001E
S1130A54000034343820003F2424180018242400CF
S1130A641824243F0000182C280000043E05050027
S1130A745854543C003F08043800043D000000442A
S1130A84443D00003F08142000013F00003C083CA2
S1130A94083C003C0804380018242418007C24244E
S1130AA4181824247C00003C08040000282C14009A
S1130AB400041E2404001C20103C000C30300C0CD8
S1130AC4301C300C0024181824404C70300C0034B2
S1130AD42C2C00000836410000007F000000413641
S1130AE408001008081008003C223C00001CA26204
S1130AF42250574D205369676E616C20004475740D
S1130B0479204379636C65203D20303020250066CC
S1130B1472657175656E6379203D09333230204BFB
S1070B24485A000027
S9030000FC
